{
  "contractName": "Chainlist",
  "abi": [
    {
      "constant": false,
      "inputs": [
        {
          "name": "_id",
          "type": "uint256"
        }
      ],
      "name": "buyArticle",
      "outputs": [],
      "payable": true,
      "stateMutability": "payable",
      "type": "function"
    },
    {
      "constant": true,
      "inputs": [],
      "name": "getNoOfArticles",
      "outputs": [
        {
          "name": "",
          "type": "uint256"
        }
      ],
      "payable": false,
      "stateMutability": "view",
      "type": "function"
    },
    {
      "constant": false,
      "inputs": [],
      "name": "kill",
      "outputs": [],
      "payable": false,
      "stateMutability": "nonpayable",
      "type": "function"
    },
    {
      "constant": true,
      "inputs": [],
      "name": "getArticlesForSale",
      "outputs": [
        {
          "name": "",
          "type": "uint256[]"
        }
      ],
      "payable": false,
      "stateMutability": "view",
      "type": "function"
    },
    {
      "constant": false,
      "inputs": [
        {
          "name": "_name",
          "type": "string"
        },
        {
          "name": "_description",
          "type": "string"
        },
        {
          "name": "_price",
          "type": "uint256"
        },
        {
          "name": "_image_url",
          "type": "string"
        }
      ],
      "name": "sellArticle",
      "outputs": [],
      "payable": false,
      "stateMutability": "nonpayable",
      "type": "function"
    },
    {
      "constant": true,
      "inputs": [
        {
          "name": "",
          "type": "uint256"
        }
      ],
      "name": "articles",
      "outputs": [
        {
          "name": "id",
          "type": "uint256"
        },
        {
          "name": "seller",
          "type": "address"
        },
        {
          "name": "buyer",
          "type": "address"
        },
        {
          "name": "name",
          "type": "string"
        },
        {
          "name": "description",
          "type": "string"
        },
        {
          "name": "price",
          "type": "uint256"
        },
        {
          "name": "image_url",
          "type": "string"
        }
      ],
      "payable": false,
      "stateMutability": "view",
      "type": "function"
    },
    {
      "anonymous": false,
      "inputs": [
        {
          "indexed": true,
          "name": "_id",
          "type": "uint256"
        },
        {
          "indexed": true,
          "name": "_seller",
          "type": "address"
        },
        {
          "indexed": false,
          "name": "_name",
          "type": "string"
        },
        {
          "indexed": false,
          "name": "_price",
          "type": "uint256"
        }
      ],
      "name": "LogSellArticle",
      "type": "event"
    },
    {
      "anonymous": false,
      "inputs": [
        {
          "indexed": true,
          "name": "_id",
          "type": "uint256"
        },
        {
          "indexed": true,
          "name": "_seller",
          "type": "address"
        },
        {
          "indexed": true,
          "name": "_buyer",
          "type": "address"
        },
        {
          "indexed": false,
          "name": "_name",
          "type": "string"
        },
        {
          "indexed": false,
          "name": "_price",
          "type": "uint256"
        }
      ],
      "name": "LogBuyArticle",
      "type": "event"
    }
  ],
  "bytecode": "0x6060604052336000806101000a81548173ffffffffffffffffffffffffffffffffffffffff021916908373ffffffffffffffffffffffffffffffffffffffff160217905550610d09806100536000396000f300606060405260043610610078576000357c0100000000000000000000000000000000000000000000000000000000900463ffffffff1680631cc4baa81461007d578063304678191461009557806341c0e1b5146100be5780637f6be3da146100d35780639d5d3c351461013d578063edcfafe614610229575b600080fd5b6100936004808035906020019091905050610468565b005b34156100a057600080fd5b6100a8610750565b6040518082815260200191505060405180910390f35b34156100c957600080fd5b6100d161075a565b005b34156100de57600080fd5b6100e66107ef565b6040518080602001828103825283818151815260200191508051906020019060200280838360005b8381101561012957808201518184015260208101905061010e565b505050509050019250505060405180910390f35b341561014857600080fd5b610227600480803590602001908201803590602001908080601f0160208091040260200160405190810160405280939291908181526020018383808284378201915050505050509190803590602001908201803590602001908080601f0160208091040260200160405190810160405280939291908181526020018383808284378201915050505050509190803590602001909190803590602001908201803590602001908080601f0160208091040260200160405190810160405280939291908181526020018383808284378201915050505050509190505061095b565b005b341561023457600080fd5b61024a6004808035906020019091905050610ba5565b604051808881526020018773ffffffffffffffffffffffffffffffffffffffff1673ffffffffffffffffffffffffffffffffffffffff1681526020018673ffffffffffffffffffffffffffffffffffffffff1673ffffffffffffffffffffffffffffffffffffffff16815260200180602001806020018581526020018060200184810384528881815460018160011615610100020316600290048152602001915080546001816001161561010002031660029004801561034b5780601f106103205761010080835404028352916020019161034b565b820191906000526020600020905b81548152906001019060200180831161032e57829003601f168201915b50508481038352878181546001816001161561010002031660029004815260200191508054600181600116156101000203166002900480156103ce5780601f106103a3576101008083540402835291602001916103ce565b820191906000526020600020905b8154815290600101906020018083116103b157829003601f168201915b50508481038252858181546001816001161561010002031660029004815260200191508054600181600116156101000203166002900480156104515780601f1061042657610100808354040283529160200191610451565b820191906000526020600020905b81548152906001019060200180831161043457829003601f168201915b50509a505050505050505050505060405180910390f35b60008060025411151561047a57600080fd5b60008211801561048c57506002548211155b151561049757600080fd5b60016000838152602001908152602001600020905060008160020160009054906101000a900473ffffffffffffffffffffffffffffffffffffffff1673ffffffffffffffffffffffffffffffffffffffff161415156104f557600080fd5b3373ffffffffffffffffffffffffffffffffffffffff168160010160009054906101000a900473ffffffffffffffffffffffffffffffffffffffff1673ffffffffffffffffffffffffffffffffffffffff161415151561055457600080fd5b80600501543414151561056657600080fd5b338160020160006101000a81548173ffffffffffffffffffffffffffffffffffffffff021916908373ffffffffffffffffffffffffffffffffffffffff1602179055508060010160009054906101000a900473ffffffffffffffffffffffffffffffffffffffff1673ffffffffffffffffffffffffffffffffffffffff166108fc349081150290604051600060405180830381858888f19350505050151561060d57600080fd5b8060020160009054906101000a900473ffffffffffffffffffffffffffffffffffffffff1673ffffffffffffffffffffffffffffffffffffffff168160010160009054906101000a900473ffffffffffffffffffffffffffffffffffffffff1673ffffffffffffffffffffffffffffffffffffffff16837f5d28bc06e6f0c45405abfe77bd77236c767f9bd9d044ae2d954a415a2b4823e0846003018560050154604051808060200183815260200182810382528481815460018160011615610100020316600290048152602001915080546001816001161561010002031660029004801561073d5780601f106107125761010080835404028352916020019161073d565b820191906000526020600020905b81548152906001019060200180831161072057829003601f168201915b5050935050505060405180910390a45050565b6000600254905090565b6000809054906101000a900473ffffffffffffffffffffffffffffffffffffffff1673ffffffffffffffffffffffffffffffffffffffff163373ffffffffffffffffffffffffffffffffffffffff161415156107b557600080fd5b6000809054906101000a900473ffffffffffffffffffffffffffffffffffffffff1673ffffffffffffffffffffffffffffffffffffffff16ff5b6107f7610c24565b6107ff610c24565b60008061080a610c24565b600060025460405180591061081c5750595b9080825280602002602001820160405250945060009350600192505b600254831115156108e15760006001600085815260200190815260200160002060020160009054906101000a900473ffffffffffffffffffffffffffffffffffffffff1673ffffffffffffffffffffffffffffffffffffffff1614156108d457600160008481526020019081526020016000206000015485858151811015156108bd57fe5b906020019060200201818152505083806001019450505b8280600101935050610838565b836040518059106108ef5750595b90808252806020026020018201604052509150600090505b8381101561095057848181518110151561091d57fe5b90602001906020020151828281518110151561093557fe5b90602001906020020181815250508080600101915050610907565b819550505050505090565b60026000815480929190600101919050555060e06040519081016040528060025481526020013373ffffffffffffffffffffffffffffffffffffffff168152602001600073ffffffffffffffffffffffffffffffffffffffff168152602001858152602001848152602001838152602001828152506001600060025481526020019081526020016000206000820151816000015560208201518160010160006101000a81548173ffffffffffffffffffffffffffffffffffffffff021916908373ffffffffffffffffffffffffffffffffffffffff16021790555060408201518160020160006101000a81548173ffffffffffffffffffffffffffffffffffffffff021916908373ffffffffffffffffffffffffffffffffffffffff1602179055506060820151816003019080519060200190610a99929190610c38565b506080820151816004019080519060200190610ab6929190610c38565b5060a0820151816005015560c0820151816006019080519060200190610add929190610c38565b509050503373ffffffffffffffffffffffffffffffffffffffff166002547fe2ebb0c522a8b90a93f45a5dfd3c0e0516b81519fdf199efe51c474642fe8cec86856040518080602001838152602001828103825284818151815260200191508051906020019080838360005b83811015610b64578082015181840152602081019050610b49565b50505050905090810190601f168015610b915780820380516001836020036101000a031916815260200191505b50935050505060405180910390a350505050565b60016020528060005260406000206000915090508060000154908060010160009054906101000a900473ffffffffffffffffffffffffffffffffffffffff16908060020160009054906101000a900473ffffffffffffffffffffffffffffffffffffffff16908060030190806004019080600501549080600601905087565b602060405190810160405280600081525090565b828054600181600116156101000203166002900490600052602060002090601f016020900481019282601f10610c7957805160ff1916838001178555610ca7565b82800160010185558215610ca7579182015b82811115610ca6578251825591602001919060010190610c8b565b5b509050610cb49190610cb8565b5090565b610cda91905b80821115610cd6576000816000905550600101610cbe565b5090565b905600a165627a7a72305820d8dbb55f3bd0dff37b781b588746b1656d77f401f75ca6ffe97dac923fd97e590029",
  "source": "pragma solidity ^0.4.18;\n\nimport \"./Ownable.sol\";\n\ncontract Chainlist is Ownable{\n  // custom types\n  struct Article {\n    uint id;\n    address seller;\n    address buyer;\n    string name;\n    string description;\n    uint256 price;\n    string image_url;\n  }\n\n  // state variables\n  /* address owner; */\n  mapping (uint => Article) public articles;\n  uint articleCounter;\n\n  // events\n  event LogSellArticle(\n    uint indexed _id,\n    address indexed _seller,\n    string _name,\n    uint256 _price\n    );\n\n  event LogBuyArticle(\n    uint indexed _id,\n    address indexed _seller,\n    address indexed _buyer,\n    string _name,\n    uint256 _price\n    );\n\n  // function modifiers\n  /* modifier onlyOwner() {\n    require(msg.sender == owner);\n    _;\n  } */\n\n  // constructor\n  /* function Chainlist() public {\n    owner = msg.sender;\n  } */\n\n  function kill() public onlyOwner {\n    //only allow contract owner\n    /* require(msg.sender == owner); */\n\n    selfdestruct(owner);\n  }\n\n  // sell an article\n  function sellArticle(string _name, string _description, uint256 _price, string _image_url) public {\n    /* seller = msg.sender;\n    name = _name;\n    description = _description;\n    price = _price; */\n\n    articleCounter++;\n\n    // storing this article\n    articles[articleCounter] = Article(\n      articleCounter,\n      msg.sender,\n      0x0,\n      _name,\n      _description,\n      _price,\n      _image_url\n      );\n\n    LogSellArticle(articleCounter, msg.sender, _name, _price);\n  }\n\n  // get an sellArticle\n  /* function getArticle() public view returns(\n    address _seller,\n    address _buyer,\n    string _name,\n    string _description,\n    uint256 _price) {\n      return(seller, buyer, name, description, price);\n  } */\n\n  // fetch and return all article IDs for articles still for sale\n  function getArticlesForSale() public view returns(uint[]) {\n    // prepare output array\n    uint[] memory articleIds = new uint[](articleCounter);\n\n    uint numberOfArticlesForSale = 0;\n    for(uint i = 1; i <= articleCounter; i++){\n      // keep the ID if the article is stil for sale\n      if(articles[i].buyer == 0x0){\n        articleIds[numberOfArticlesForSale] = articles[i].id;\n        numberOfArticlesForSale++;\n      }\n    }\n\n    // copy the articleIds array into a smaller forSale array\n    uint[] memory forSale = new uint[](numberOfArticlesForSale);\n    for(uint j = 0; j < numberOfArticlesForSale; j++){\n      // keep the ID if the article is stil for sale\n      forSale[j] = articleIds[j];\n    }\n\n    return forSale;\n  }\n\n  // gets the number of articles\n  function getNoOfArticles() public view returns(uint) {\n    return articleCounter;\n  }\n\n  // Buy an articles\n  function buyArticle(uint _id) payable public {\n    // we check if there are articles for sale\n    require(articleCounter > 0);\n\n    // we check that the article exists\n    require(_id > 0 && _id <= articleCounter);\n\n    // retrieve the article from the mapping\n    Article storage article = articles[_id];\n\n    // check that the article has ot been sold yet\n    require(article.buyer == 0x0);\n\n    // Dont allow seller to buy its own article\n    require(article.seller != msg.sender);\n\n    // Value sent corresponds to price of article\n    require(msg.value == article.price);\n\n    // keep buyer's info\n    article.buyer = msg.sender;\n\n    // buyer can pay sender\n    article.seller.transfer(msg.value);\n\n    LogBuyArticle(_id, article.seller, article.buyer, article.name, article.price);\n  }\n}\n",
  "sourcePath": "/var/www/blockchain.comflo.com/html/contracts/ChainList.sol",
  "compiler": {
    "name": "solc",
    "version": "0.4.18+commit.9cf6e910.Emscripten.clang"
  },
  "schemaVersion": "1.0.1",
  "updatedAt": "2018-05-07T21:13:20.690Z"
}